S00F00004D69647465726D2E7372656343
S11300000C9480000C949D000C949D000C949D0015
S11300100C949D000C949D000C949D000C949D00E8
S11300200C949D000C949D000C949D000C949D00D8
S11300300C949D000C949D000C949D000C949D00C8
S11300400C949D000C949D000C949D000C949D00B8
S11300500C949D000C949D000C949D000C949D00A8
S11300600C949D000C949D000C949D000C949D0098
S11300700C949D000C949D000C949D000C949D0088
S11300800C949D000C949D000C949D000C949D0078
S11300900C949D000C949D000C949D000C949D0068
S11300A00C949D000C949D000C949D000C949D0058
S11300B00C949D001502FC01FC01FC01FC010F02E3
S11300C0FC01FC01FC01FC01FC01FC01FC01FC0144
S11300D0FC01FC01FC01FC01FC01FC01FC01FC0134
S11300E0FC01FC01FC0109021B02FC01FC01FC01F6
S11300F0FC01FC011202FC01FC01FC0118020C02CF
S113010011241FBECFEFD8E0DEBFCDBF12E0A0E0C8
S1130110B1E0EEEEFBE002C005900D92AE33B10704
S1130120D9F722E0AEE3B2E001C01D92A334B207D6
S1130130E1F70E94ED010C94F5050C940000FC011C
S11301400FB6F89460913F02709140028091410291
S1130150909142020FBE309721F0608371838283B5
S1130160938308951092C50087E68093C40086E0C7
S11301708093C20088E18093C100089584E4809351
S11301807C0085E880937A000895EAE7F0E08081B6
S113019080648083808186FDFDCF8091780090917A
S11301A0790080933E020895CF93DF93FC01208170
S11301B0222369F0DC011196E0ECF0E0C6ECD0E01B
S11301C0908195FFFDCF28832D912111F9CFDF91E7
S11301D0CF910895E0ECF0E080818823ECF78091E2
S11301E0C600089584E091E00E94D4008CE291E07E
S11301F00E94D40087E591E00E94D40085E991E053
S11302000E94D4008DEB91E00E94D40087EE91E02F
S11302100E94D40008950F931F93CF93DF93CDB71B
S1130220DEB764970FB6F894DEBF0FBECDBF0E9451
S1130230C50080913E0290E080979C01220F331FFD
S1130240220F331F820F931F69E070E00E941E0289
S11302507F936F9387E192E09F938F938E010F5F5B
S11302601F4F1F930F930E94A8028AE192E00E94FD
S1130270D400C8010E94D40088E292E00E94D40015
S11302800F900F900F900F900F900F9064960FB6F1
S1130290F894DEBF0FBECDBFDF91CF911F910F91B8
S11302A008950F931F93CF93DF93CDB7DEB7649771
S11302B00FB6F894DEBF0FBECDBF0E94C50080917B
S11302C03E021F928F9387E192E09F938F938E015A
S11302D00F5F1F4F1F930F930E94A8028AE192E0C1
S11302E00E94D400C8010E94D4008CE292E00E94D3
S11302F0D4000F900F900F900F900F900F90649672
S11303000FB6F894DEBF0FBECDBFDF91CF911F9122
S11303100F9108952D9808952D9A089580E392E001
S11303200E94D4000895009741F0EFE9FFE031976F
S1130330F1F700C000000197C1F70895EF92FF9212
S11303400F931F93CF93DF93CDB7DEB764970FB6A8
S1130350F894DEBF0FBECDBF0E94980263E070E048
S11303600E941E02019628EE33E0829F8001839F43
S1130370100D929F100D11241F930F9387E192E0AB
S11303809F938F93CE0101967C019F938F930E943C
S1130390A802C7010E94D4008CE392E00E94D4001A
S11303A00E948A01C8010E9493010E948C01C80125
S11303B00E9493010F900F900F900F900F900F9049
S11303C064960FB6F894DEBF0FBECDBFDF91CF9118
S11303D01F910F91FF90EF90089580E090E00E94AC
S11303E09F00CB010E949D020E94B2000E94BE00A9
S11303F0259A2D9A0E94F2000E94EA0090E0FC01E6
S1130400EF54F109E632F105B8F7E65AFF4F0C94C0
S113041032020E94F200F0CF0E940B01EDCF0E9445
S11304205101EACF0E948A01E7CF0E948C01E4CFF8
S11304300E948E01E1CF0E949E01DECF97FB072E22
S113044016F4009407D077FD09D00E94380207FC07
S113045005D03EF4909581959F4F089570956195D0
S11304607F4F0895EE0FFF1F0590F491E02D09943E
S1130470AA1BBB1B51E107C0AA1FBB1FA617B707C6
S113048010F0A61BB70B881F991F5A95A9F78095E2
S11304909095BC01CD0108958F929F92AF92BF9227
S11304A0CF92DF92EF92FF92CF93DF93EC016881BA
S11304B079818A819B81611571058105910521F4FA
S11304C064E279ED8BE597E02DE133EF41E050E014
S11304D00E945B0549015A019B01AC01A7EAB1E402
S11304E00E947A056B017C01ACEEB4EFA501940186
S11304F00E948805DC01CB018C0D9D1DAE1DBF1D26
S1130500B7FF03C00197A109B04888839983AA83E0
S1130510BB839F77DF91CF91FF90EF90DF90CF90D7
S1130520BF90AF909F908F9008950E944C020895C1
S113053080E091E00E944C020895A0E0B0E0809336
S1130540000190930101A0930201B0930301089567
S1130550AEE0B0E0EEEAF2E00C949B050D891E8952
S113056086E08C831A8309838FEF9FE79E838D83B4
S1130570AE01475E5F4F6F89788DCE0101960E9470
S1130580CA02EF81F885E00FF11F10822E96E4E095
S11305900C94B705ABE0B0E0E0EDF2E00C948D050F
S11305A06C017B018A01FC0117821682838181FF21
S11305B0CCC1CE0101963C01F6019381F70193FD74
S11305C0859193FF81917F01882309F4BAC1853213
S11305D039F493FD859193FF81917F01853229F44C
S11305E0B60190E00E94C104E7CF912C212C312C5C
S11305F0FFE1F315D8F08B3279F038F4803279F0DA
S11306008332A1F4232D20611DC08D3261F080332B
S113061069F4232D216016C0832D8260382EE32DCA
S1130620E4603E2E2AC0F32DF8601DC037FC2DC0B7
S113063020ED280F2A3040F08E32B9F436FC81C107
S1130640232D2064322E19C036FE06C08AE0989EFF
S1130650200D1124922E11C0EAE02E9E200D1124AB
S1130660222EF32DF0623F2E08C08C3621F4832D08
S11306708068382E02C0883641F4F70193FD8591D5
S113068093FF81917F018111B3CF982F9F7D955462
S1130690933028F40C5F1F4F9FE399830DC083367A
S11306A031F0833771F0833509F059C021C0F80166
S11306B0808189830E5F1F4F88248394912C53017A
S11306C013C02801F2E04F0E511CF801A080B18044
S11306D036FE03C0692D70E002C06FEF7FEFC501E5
S11306E00E94B6044C018201F32DFF773F2E16C001
S11306F0280122E0420E511CF801A080B18036FE90
S113070003C0692D70E002C06FEF7FEFC5010E9446
S1130710AB044C01F32DF0683F2E820133FC1BC067
S1130720822D90E088169906B0F4B60180E290E03C
S11307300E94C1042A94F4CFF50137FC859137FE59
S113074081915F01B60190E00E94C10421102A94B6
S113075021E0821A91088114910471F7E8C084366B
S113076011F0893641F5F80137FE07C060817181C7
S1130770828193810C5F1F4F08C060817181072EB5
S1130780000C880B990B0E5F1F4FF32DFF763F2E45
S113079097FF09C090958095709561957F4F8F4F15
S11307A09F4FF0683F2E2AE030E0A3010E94FD0431
S11307B0882E861845C0853731F4232D2F7EB22E1E
S11307C02AE030E025C0932D997FB92E8F36C1F0F1
S11307D018F4883579F0B5C0803719F0883721F0DE
S11307E0B0C0E92FE061BE2EB4FE0DC0FB2DF46055
S11307F0BF2E09C034FE0AC0292F2660B22E06C0BF
S113080028E030E005C020E130E002C020E132E021
S1130810F801B7FE07C060817181828193810C5F0A
S11308201F4F06C06081718180E090E00E5F1F4F12
S1130830A3010E94FD04882E8618FB2DFF773F2E0E
S113084036FE0DC0232D2E7FA22E891458F434FEBB
S11308500BC032FC09C0832D8E7EA82E05C0B82C97
S1130860A32C03C0B82C01C0B92CA4FE0FC0FE01F8
S1130870E80DF11D8081803321F49A2D997EA92EF3
S113088009C0A2FE06C0B394B39404C08A2D86782E
S113089009F0B394A3FC11C0A0FE06C0B21488F4FE
S11308A0280C922C9B180EC0B21460F4B60180E29E
S11308B090E00E94C104B394F7CFB21418F42B183B
S11308C002C0982C212CA4FE10C0B60180E390E055
S11308D00E94C104A2FE17C0A1FC03C088E790E0F7
S11308E002C088E590E0B6010CC08A2D867859F0E4
S11308F0A1FE02C08BE201C080E2A7FC8DE2B6013A
S113090090E00E94C104891438F4B60180E390E0B9
S11309100E94C1049A94F7CF8A94F301E80DF11D63
S11309208081B60190E00E94C1048110F5CF22209D
S113093009F442CEB60180E290E00E94C1042A94F8
S1130940F6CFF6018681978102C08FEF9FEF2B9639
S1130950E2E10C94A905FC0105906150704001107E
S1130960D8F7809590958E0F9F1F0895FC016150D4
S1130970704001900110D8F7809590958E0F9F1FBD
S113098008950F931F93CF93DF93FB01238121FDE0
S113099003C08FEF9FEF2CC022FF16C04681578102
S11309A0248135814217530744F4A081B1819D010C
S11309B02F5F3F4F318320838C93268137812F5FB4
S11309C03F4F3783268314C08B01EC01FB01008465
S11309D0F185E02D0995892BE1F6D80116968D91C4
S11309E09C911797019617969C938E931697CE0118
S11309F0DF91CF911F910F910895FA01AA27283012
S1130A0051F1203181F1E8946F936E7F6E5F7F4FD7
S1130A108F4F9F4FAF4FB1E03ED0B4E03CD0670F53
S1130A20781F891F9A1FA11D680F791F8A1F911DA6
S1130A30A11D6A0F711D811D911DA11D20D009F4F6
S1130A4068943F912AE0269F11243019305D319338
S1130A50DEF6CF010895462F4770405D4193B3E021
S1130A600FD0C9F7F6CF462F4F70405D4A3318F0C8
S1130A70495D31FD4052419302D0A9F7EACFB4E079
S1130A80A6959795879577956795BA95C9F7009731
S1130A906105710508959B01AC010A2E06945795D2
S1130AA0479537952795BA95C9F7620F731F841F29
S1130AB0951FA01D0895052E97FB1EF400940E9417
S1130AC0720557FD07D00E94C40507FC03D04EF4FD
S1130AD00C94720550954095309521953F4F4F4F9A
S1130AE05F4F089590958095709561957F4F8F4FD6
S1130AF09F4F08950E94E605A59F900DB49F900D09
S1130B00A49F800D911D11240895B7FF0C947A05BC
S1130B100E947A05821B930B08952F923F924F9265
S1130B205F926F927F928F929F92AF92BF92CF9279
S1130B30DF92EF92FF920F931F93CF93DF93CDB782
S1130B40DEB7CA1BDB0B0FB6F894DEBF0FBECDBFFA
S1130B5009942A88398848885F846E847D848C84CB
S1130B609B84AA84B984C884DF80EE80FD800C81D4
S1130B701B81AA81B981CE0FD11D0FB6F894DEBFB7
S1130B800FBECDBFED010895A1E21A2EAA1BBB1B17
S1130B90FD010DC0AA1FBB1FEE1FFF1FA217B30745
S1130BA0E407F50720F0A21BB30BE40BF50B661F5B
S1130BB0771F881F991F1A9469F76095709580951F
S1130BC090959B01AC01BD01CF010895A29FB00196
S1130BD0B39FC001A39F700D811D1124911DB29F6D
S1110BE0700D811D1124911D0895F894FFCF0E
S1130BEE010000002A2A2A27742720646973706C76
S1130BFE61792074656D70657261747572652069B2
S1130C0E6E2043656C736975732E0A002A2A2A278F
S1130C1E542720646973706C61792074656D7065F6
S1130C2E72617475726520696E20466172656E74A8
S1130C3E686964652E0A002A2A2A276F272074758C
S1130C4E726E73204F4E204C4544206174205042E6
S1130C5E352E0A2A2A2A274F27207475726E73207E
S1130C6E4F464620746865204C45442061742050DC
S1130C7E42352E0A002A2A2A2773272073656E64AA
S1130C8E73206120737472696E6720746F207468A8
S1130C9E65207465726D696E616C2E0A002A2A2AAB
S1130CAE2769272073656E647320616E20696E74E4
S1130CBE6567657220746F20746865207465726D43
S1130CCE696E616C2E0A0050726573732027682753
S1130CDE206B657920746F20646973706C61792060
S1130CEE616761696E207468652068656C70207434
S1130CFE61626C652E0A0025690054656D7065721B
S1130D0E61747572653A200020430A0020460A0079
S1110D1E48656C6C6F20576F726C64210A007C
S9030000FC
