S00E00004441324354322E7372656396
S11300000C945A000C946C000C946C000C946C00CE
S11300100C946C000C946C000C946C000C946C00AC
S11300200C946C000C946C000C946C000C946C009C
S11300300C946C000C946C000C946C000C946C008C
S11300400C949B000C946C000C946C000C946C004D
S11300500C946C000C946C000C946C000C946C006C
S11300600C946C000C946C000C946C000C946C005C
S11300700C946C000C946C000C946C000C946C004C
S11300800C946C000C946C000C946C000C946C003C
S11300900C946C000C946C000C946C000C946C002C
S11300A00C946C000C946C000C946C000C946C001C
S11300B00C946C0011241FBECFEFD8E0DEBFCDBF7F
S11300C021E0A0E0B1E001C01D92A130B207E1F748
S11300D00E946E000C94AC000C9400003B988CE0E1
S11300E084B9439A85B18C6085B916BC14BC85E08B
S11300F085BD81E080936E00789498E033990AC0BE
S11301001092000195B9809100018B37E0F32A9A8F
S113011010920001809100018D3228F48091000139
S1130120843108F02B9A809100018E3238F32B9899
S113013010920001E3CF1F920F920FB60F92112479
S11301408F93809100018F5F809300018F910F90B6
S10F01500FBE0F901F901895F894FFCF7D
S9030000FC
