S01000004441324154325F432E73726563F4
S11300000C945A000C9464000C9464000C946400E6
S11300100C9464000C9464000C9464000C946400CC
S11300200C9464000C9464000C9464000C946400BC
S11300300C9464000C9464000C9464000C946400AC
S11300400C9464000C9464000C9464000C9464009C
S11300500C9464000C9464000C9464000C9464008C
S11300600C9464000C9464000C9464000C9464007C
S11300700C9464000C9464000C9464000C9464006C
S11300800C9464000C9464000C9464000C9464005C
S11300900C9464000C9464000C9464000C9464004C
S11300A00C9464000C9464000C9464000C9464003C
S11300B00C94640011241FBECFEFD8E0DEBFCDBF87
S11300C00E9466000C947A000C940000229A2A9AEA
S11300D087B117B8439A33990BC02A982FEF87EA50
S11300E091E6215080409040E1F700C00000F3CF3A
S10B00F02A9AF1CFF894FFCF26
S9030000FC
