S00E00005461736B20322E7372656331
S11300000C945A000C9477000C9477000C947700AD
S11300100C9477000C9477000C9477000C94770080
S11300200C9477000C9477000C9477000C94770070
S11300300C9477000C9477000C9477000C94770060
S11300400C9477000C9477000C9477000C94770050
S11300500C9477000C9477000C9477000C94770040
S11300600C9477000C9477000C9477000C94770030
S11300700C9477000C9477000C9477000C94770020
S11300800C9477000C9477000C9477000C94770010
S11300900C9477000C9477000C9477000C94770000
S11300A00C9477000C9477000C9477000C947700F0
S11300B00C94770011241FBECFEFD8E0DEBFCDBF74
S11300C011E0A0E0B1E0E2EEF1E002C005900D9293
S11300D0AA30B107D9F721E0AAE0B1E001C01D922E
S11300E0AB30B207E1F70E948F000C94EF000C9440
S11300F0000084E480937C0085E880937A0008956E
S1130100EAE7F0E0808180648083808186FDFDCF12
S1130110809178009091790080930A0108950E945B
S113012079000F2EF0E5EF2EF02DCDEC0F2EF8EF29
S1130130FF2EF02D04EF19E2D2EF0E94800084B16B
S11301408C6284B985B1837D85B9ECBC2A98E09131
S11301500A01EC9F812D1124869586958695880F3A
S1130160982F990F990F890FE81BF0E0E050FF4F8B
S113017080818EBD0DB407FEFDCFFEBC0DB407FE1D
S1130180FDCF2A9A2A98E0910A01EC9FE12D1124CF
S1130190E695E695E695F0E0E050FF4F80818EBD50
S11301A00DB407FEFDCF0EBD0DB407FEFDCF2A9A98
S11301B02A98E0910A01E19FE12D1124E295EF7064
S11301C0F0E0E050FF4F80818EBD0DB407FEFDCFFF
S11301D0DEBD0DB407FEFDCF2A9A2A98AECFF8945F
S10501E0FFCF4B
S10D01E2C0F9A4B0999282F880904D
S9030000FC
