S00E00005461736B20322E7372656331
S11300000C94EE000C940B010C940B010C940B015A
S11300100C940B010C940B010C940B010C940B012C
S11300200C940B010C940B010C940B010C940B011C
S11300300C940B010C940B010C940B010C940B010C
S11300400C940B010C940B010C940B010C940B01FC
S11300500C940B010C940B010C940B010C940B01EC
S11300600C940B010C940B010C940B010C940B01DC
S11300700C940B010C940B010C940B010C940B01CC
S11300800C940B010C940B010C940B010C940B01BC
S11300900C940B010C940B010C940B010C940B01AC
S11300A00C940B010C940B010C940B010C940B019C
S11300B00C940B01084AD73B3BCE016E84BCBFFDB8
S11300C0C12F3D6C74319ABD56833DDA3D00C77F24
S11300D011BED9E4BB4C3E916BAAAABE00000080BD
S11300E03F0000407A10F35A00A0724E1809001025
S11300F0A5D4E80000E87648170000E40B54020099
S113010000CA9A3B000000E1F505000080969800C3
S1130110000040420F000000A086010000001027EC
S113012000000000E803000000006400000000007C
S11301300A00000000000100000000002C76D888AE
S1130140DC674F0823DFC1DFAE59E1B1B796E5E3C1
S1130150E453C63AE651997696E8E6C28426EB89DA
S11301608C9B62ED407C6FFCEFBC9C9F40F2BAA577
S11301706FA5F490055A2AF75C936B6CF9676DC10F
S11301801BFCE0E40D47FEF520E6B500D0ED902E13
S11301900300943577050080841E080000204E0A71
S11301A0000000C80C333333330F986E12831141AF
S11301B0EF8D2114893BE65516CFFEE6DB18D1847A
S11301C04B381BF77C1D901DA4BBE42420328472A1
S11301D05E228100C9F124ECA1E53D2711241FBE54
S11301E0CFEFD8E0DEBFCDBF11E0A0E0B1E0E6E99B
S11301F0FBE102C005900D92AA31B107D9F721E0C5
S1130200AAE1B1E001C01D92AE33B207E1F70E944A
S113021070040C94C90D0C9400001092B90088E489
S11302208093B800089594EA9093BC00ECEBF0E05E
S113023090819923ECF79091B900987F903199F4CB
S11302408093BB0084E88093BC00ECEBF0E08081F9
S11302508823ECF78091B900887F803431F08032B4
S113026031F083E0089580E0089581E0089582E00C
S1130270089584E98093BC00ECEBF0E0808184FD78
S1130280FDCF0895BF92CF92DF92EF92FF920F932A
S11302901F93CF93DF93B82ECCEBD0E00F2EF4EA6C
S11302A0DF2EF02D09EB10E00F2EFBEBEF2EF12CDF
S11302B0F02D0F2EF4E8CF2EF02DD88288818823DC
S11302C0ECF7F8018081887F8830B9F7F701B082B4
S11302D0C88288818823ECF7F8018081887F88317F
S11302E019F00E943901E9CFDF91CF911F910F914D
S11302F0FF90EF90DF90CF90BF9008958093BB0064
S113030084E88093BC00ECEBF0E080818823ECF778
S11303108091B900887F883221F0803321F082E017
S1130320089580E0089581E0089584EC8093BC00F2
S1130330ECEBF0E080818823ECF78091BB0008951A
S113034084E88093BC00ECEBF0E080818823ECF738
S11303508091BB0008952FEF82E597E02150804003
S11303609040E1F700C0000080ED0E94420189E165
S11303700E947E0187E00E947E010E94390180ED87
S11303800E9442018BE60E947E0181E00E947E0170
S11303900E94390180ED0E9442018AE10E947E019F
S11303A080E00E947E010E94390180ED0E9442019A
S11303B08BE10E947E0188E10E947E010E94390146
S11303C080ED0E94420188E30E947E0181E00E9448
S11303D07E010E943901089580ED0E9442018BE361
S11303E00E947E0181ED0E9413010895CF930E9423
S11303F0EC010E949501C82F0E9495016C2F70E0BA
S1130400762F6627682B072E000C880B990B0E9409
S1130410E40660932E0170932F0180933001909332
S113042031010E949501C82F0E9495016C2F70E044
S1130430762F6627682B072E000C880B990B0E94D9
S1130440E40660932601709327018093280190931A
S113045029010E949501C82F0E9495016C2F70E01C
S1130460762F6627682B072E000C880B990B0E94A9
S1130470E40660931A0170931B0180931C0190930E
S11304801D010E949501C82F0E9495016C2F70E0F8
S1130490762F6627682B072E000C880B990B0E9479
S11304A0E4066093220170932301809324019093C6
S11304B025010E949501C82F0E9495016C2F70E0C0
S11304C0762F6627682B072E000C880B990B0E9449
S11304D0E40660931E0170931F01809320019093A2
S11304E021010E949501C82F0E9495016C2F70E094
S11304F0762F6627682B072E000C880B990B0E9419
S1130500E406609332017093330180933401909335
S113051035010E949501C82F0E94A0016C2F70E044
S1130520762F6627682B072E000C880B990B0E94E8
S1130530E40660932A0170932B0180932C0190931D
S11305402D010E943901CF9108954F925F926F92CD
S11305507F928F929F92AF92BF92CF92DF92EF924F
S1130560FF92CF93DF9300D000D0CDB7DEB77B01ED
S11305703A01BC01990F880B990B0E94E4064B01C8
S11305805C01B701FF0C880B990B0E94E4066B0118
S11305907C01B301770C880B990B0E94E4069B0144
S11305A0AC010E949F0769837A838B839C83A70194
S11305B09601C701B6010E949F072B013C012981C6
S11305C03A814B815C81C301B2010E945C050E94A7
S11305D012089B01AC01C501B4010E943A060E94B5
S11305E00B062B013C01A5019401C501B4010E9435
S11305F09F0729813A814B815C810E945C050E949E
S113060012089B01AC01C701B6010E943A060E9480
S11306100B066B017C0123EA3CE445E652E4C3018A
S1130620B2010E949F076093360170933701809353
S113063038019093390123EA3CE445E652E4C701CA
S1130640B6010E949F0760933A0170933B01809327
S11306503C0190933D010F900F900F900F90DF910C
S1130660CF91FF90EF90DF90CF90BF90AF909F908D
S11306708F907F906F905F904F9008954F925F920C
S11306806F927F928F929F92AF92BF92CF92DF929E
S1130690EF92FF92CF93DF93CDB7DEB72A970FB6D1
S11306A0F894DEBF0FBECDBF23E333E343E851E448
S11306B060911E0170911F01809120019091210190
S11306C00E943A062AE037ED43E25CE30E949F076A
S11306D02091360130913701409138015091390110
S11306E00E945C054B015C016093360170933701F5
S11306F0809338019093390123E333E343E851E4D1
S113070060913201709133018091340190913501EF
S11307100E943A062AE037ED43E25CE30E949F0719
S11307209B01AC0160913A0170913B0180913C01C5
S113073090913D010E945B0569837A838B839C833E
S113074060933A0170933B0180933C0190933D0187
S113075080912E0190912F01A0913001B09131012F
S11307608D839E83AF83B8874090260150902701E4
S11307706090280170902901C0901A01D0901B014B
S1130780E0901C01F0901D01BC01CD010E94AC065B
S11307907A876987DB01BB2334F422273327261B9E
S11307A0370B3A872987C301B2010E94AC069B012B
S11307B0772324F422273327261B370B89859A8530
S11307C0820F931F9A878987C701B6010E94AC06DE
S11307D09B01772324F422273327261B370BA98573
S11307E0BA85A20FB31FA130B0420CF464C0A701B4
S11307F09601C301B2010E94DB0520E030E044E32E
S113080053E40E949F072BED3FE049E450E40E942B
S11308103A062AE037ED43EA5CE30E949F072B0186
S11308203C0128E431EE4AE75FE3C501B4010E94CC
S11308309F079B01AC01C301B2010E945C05609358
S11308403601709337018093380190933901A701E1
S113085096016D817E818F8198850E94DB0520E061
S113086030E044E353E40E949F072BED3FE049E46A
S113087050E40E943A062AE037ED43EA5CE30E9422
S11308809F074B015C0128E431EE4AE75FE369818D
S11308907A818B819C810E949F079B01AC01C501D9
S11308A0B4010E945C0560933A0170933B0180930C
S11308B03C0190933D012A960FB6F894DEBF0FBE1B
S11308C0CDBFDF91CF91FF90EF90DF90CF90BF909D
S11308D0AF909F908F907F906F905F904F9008950E
S11308E0CF93DF93CDB7DEB7A2970FB6F894DEBFF0
S11308F00FBECDBF0E940D010E94AB0160E875E2FE
S113090080E090E00E94100581E0809381001092C5
S11309108500109284000F2EF4E8EF2EF12CF02DB8
S11309206E0125E1C20ED11C0F2EF0E08F2EF1E0F6
S11309309F2EF02DCE0101965C010F2EFDE02F2E8F
S1130940F1E03F2EF02DF7018081918180329E44A9
S1130950D1F70E94F60160911A0170911B018091F8
S11309601C0190911D010E94AC062B013C01609179
S113097026017091270180912801909129010E94FC
S1130980AC066F8F78A389A39AA360912E0170910E
S11309902F0180913001909131010E94AC06DC015D
S11309A0CB01A2016F8D78A10E94A5020E943E0393
S11309B0609136017091370180913801909139012D
S11309C0860122E043E00E948D08DF92CF929F923D
S11309D08F92BF92AF920E94AD08C5010E944C0550
S11309E060913A0170913B0180913C0190913D01ED
S11309F022E043E00E948D08DF92CF923F922F9233
S1130A00BF92AF920E94AD08C5010E944C05F70148
S1130A10118210820FB6F894DEBF0FBECDBF93CF04
S1130A20E1ECF0E0208128612083E2ECF0E0208119
S1130A3026602083DC01CB01880F991FAA1FBB1FEE
S1130A40880F991FAA1FBB1F9C01AD01220F331FE2
S1130A50441F551F220F331F441F551F60E074E2CB
S1130A6084EF90E00E946B088FEF820F8093C400A4
S1130A70DA01C9010197A109B109892F9A2FAB2F76
S1130A80BB278093C50008958093C600E0ECF0E096
S1130A90808185FFFDCF0895CF93DF93EC0188819A
S1130AA0882331F021960E94440589918111FBCF5E
S1130AB0DF91CF9108955058BB27AA270E94730550
S1130AC00C945D070E944F0738F00E94560720F0EF
S1130AD039F49F3F19F426F40C9425070EF4E0959D
S1130AE0E7FB0C941F07E92F0E946E0758F3BA170F
S1130AF0620773078407950720F079F4A6F50C9430
S1130B0090070EF4E0950B2EBA2FA02D0B01B9011E
S1130B1090010C01CA01A0011124FF27591B99F06F
S1130B20593F50F4503E68F11A16F040A22F232F7B
S1130B30342F4427585FF3CF469537952795A795CB
S1130B40F0405395C9F77EF41F16BA0B620B730B72
S1130B50840BBAF09150A1F0FF0FBB1F661F771FE3
S1130B60881FC2F70EC0BA0F621F731F841F48F498
S1130B70879577956795B795F7959E3F08F0B0CF21
S1130B809395880F08F09927EE0F97958795089508
S1130B900E944F0760F080E891E009F49EEF0E9404
S1130BA0560728F040E851E071F45EEF0CC00C9455
S1130BB025070C949007E92FE0780E946E0740F314
S1130BC0092E052AB1F3261737074807590738F0C5
S1130BD00E2E07F8E02569F0E025E0640AC0EF6313
S1130BE007F8009407FADB01B9019D01DC01CA0191
S1130BF0AD01EF930E9451060E945D070E940B060F
S1130C005F91552339F02BED3FE049E450FD49EC69
S1130C100C945C050895DF93DD27B92FBF7740E876
S1130C205FE31616170648075B0718F4D92F0E94CE
S1130C3097079F938F937F936F930E945208E4EBDF
S1130C40F0E00E9428070E945D072F913F914F9189
S1130C505F910E94B207DD2351F09058A2EA2AED79
S1130C603FE049EC5FE3D0785D270E947305DF9194
S1130C700C945D070E944E060C945D070E94560773
S1130C8058F00E944F0740F029F45F3F29F00C947C
S1130C901F0751110C9491070C9425070E946E07AD
S1130CA068F39923B1F3552391F3951B550BBB2797
S1130CB0AA2762177307840738F09F5F5F4F220FDC
S1130CC0331F441FAA1FA9F335D00E2E3AF0E0E8D3
S1130CD032D091505040E695001CCAF72BD0FE2F1D
S1130CE029D0660F771F881FBB1F261737074807B1
S1130CF0AB07B0E809F0BB0B802DBF01FF27935869
S1130D005F4F3AF09E3F510578F00C941F070C9406
S1130D1091075F3FE4F3983ED4F386957795679502
S1130D20B795F7959F5FC9F7880F911D969587959D
S1130D3097F90895E1E0660F771F881FBB1F6217BC
S1130D4073078407BA0720F0621B730B840BBA0B7A
S1130D50EE1F88F7E09508950E94B3066894B111D8
S1130D600C94910708950E94760788F09F5798F095
S1130D70B92F9927B751B0F0E1F0660F771F881F9C
S1130D80991F1AF0BA95C9F714C0B13091F00E94B6
S1130D909007B1E008950C949007672F782F882767
S1130DA0B85F39F0B93FCCF3869577956795B395DD
S1130DB0D9F73EF490958095709561957F4F8F4F4C
S1130DC09F4F0895E89409C097FB3EF49095809551
S1130DD0709561957F4F8F4F9F4F9923A9F0F92FFD
S1130DE096E9BB279395F695879577956795B7957B
S1130DF0F111F8CFFAF4BB0F11F460FF1BC06F5F61
S1130E007F4F8F4F9F4F16C0882311F096E911C072
S1130E10772321F09EE8872F762F05C0662371F093
S1130E2096E8862F70E060E02AF09A95660F771FA7
S1130E30881FDAF7880F9695879597F9089597F99B
S1130E409F6780E870E060E008959FEF80EC08956C
S1130E50DF93CF931F930F93FF92EF92DF927B0167
S1130E608C01689406C0DA2EEF010E94B207FE01DD
S1130E70E894A5912591359145915591A6F3EF01FB
S1130E800E947305FE019701A801DA9469F7DF90C7
S1130E90EF90FF900F911F91CF91DF91089500245F
S1130EA00A941616170618060906089500240A94CB
S1130EB012161306140605060895092E0394000C51
S1130EC011F4882352F0BB0F40F4BF2B11F460FFE0
S1130ED004C06F5F7F4F8F4F9F4F089557FD905809
S1130EE0440F551F59F05F3F71F04795880F97FBEA
S1130EF0991F61F09F3F79F08795089512161306A4
S1130F001406551FF2CF4695F1DF08C016161706D2
S1130F101806991FF1CF8695710561050894089507
S1130F20E894BB2766277727CB0197F908959B019F
S1130F30AC0160E070E080E89FE30C943A060E9404
S1130F40B2070C945D070E944F0738F00E945607C1
S1130F5020F0952311F00C941F070C9425071124FD
S1130F600C9491070E946E0770F3959FC1F3950F3F
S1130F7050E0551F629FF001729FBB27F00DB11D19
S1130F80639FAA27F00DB11DAA1F649F6627B00DA9
S1130F90A11D661F829F2227B00DA11D621F739F92
S1130FA0B00DA11D621F839FA00D611D221F749FA0
S1130FB03327A00D611D231F849F600D211D822FE7
S1130FC0762F6A2F11249F5750409AF0F1F088230E
S1130FD04AF0EE0FFF1FBB1F661F771F881F91503B
S1130FE05040A9F79E3F510580F00C941F070C94C4
S1130FF091075F3FE4F3983ED4F386957795679520
S1131000B795F795E7959F5FC1F7FE2B880F911D64
S11310109695879597F9089519F416F40C94250775
S11310200C9456080E947607B8F39923C9F3B6F3D3
S11310309F57550B87FF0E9464080024A0E640EAEE
S1131040900180585695979528F4805C660F771F19
S1131050881F20F026173707480730F4621B730BEC
S1131060840B202931294A2BA6951794079420250F
S113107031254A2758F7660F771F881F20F0261757
S11310803707480730F4620B730B840B200D311DB6
S1131090411DA09581F7B901842F9158880F969529
S11310A0879508959B01AC010C949F079F3F31F0F5
S11310B0915020F4879577956795B795880F911D82
S11310C09695879597F9089591505040660F771F2C
S11310D0881FD2F70895A1E21A2EAA1BBB1BFD019B
S11310E00DC0AA1FBB1FEE1FFF1FA217B307E40703
S11310F0F50720F0A21BB30BE40BF50B661F771F5B
S1131100881F991F1A9469F760957095809590953A
S11311109B01AC01BD01CF010895EF920F931F9382
S1131120CF93DF93E80147FD02C034E001C034E10E
S1131130042E000C550B57FF03C0519541955109DE
S1131140E32E022F242FAE010E94B00ACE01DF91BC
S1131150CF911F910F91EF900895AEE0B0E0E3EBD3
S1131160F8E00C94A00D0D891E8986E08C831A8307
S113117009838FEF9FE79E838D83AE01475E5F4FA8
S11311806F89788DCE0101960E94CF08EF81F88592
S1131190E00FF11F10822E96E4E00C94BC0DABE03E
S11311A0B0E0E5EDF8E00C94920D6C017B018A014E
S11311B0FC0117821682838181FFCCC1CE01019686
S11311C03C01F6019381F70193FD859193FF819191
S11311D07F01882309F4BAC1853239F493FD8591DE
S11311E093FF81917F01853229F4B60190E00E943A
S11311F0F80CE7CF912C212C312CFFE1F315D8F01A
S11312008B3279F038F4803279F08332A1F4232DD3
S113121020611DC08D3261F0803369F4232D21607B
S113122016C0832D8260382EE32DE4603E2E2AC042
S1131230F32DF8601DC037FC2DC020ED280F2A3097
S113124040F08E32B9F436FC81C1232D2064322E55
S113125019C036FE06C08AE0989E200D1124922EF5
S113126011C0EAE02E9E200D1124222EF32DF062EF
S11312703F2E08C08C3621F4832D8068382E02C09E
S1131280883641F4F70193FD859193FF81917F01A5
S11312908111B3CF982F9F7D9554933028F40C5F20
S11312A01F4F9FE399830DC0833631F0833771F06C
S11312B0833509F059C021C0F801808189830E5F0C
S11312C01F4F88248394912C530113C02801F2E00A
S11312D04F0E511CF801A080B18036FE03C0692D69
S11312E070E002C06FEF7FEFC5010E94ED0C4C016E
S11312F08201F32DFF773F2E16C0280122E0420E13
S1131300511CF801A080B18036FE03C0692D70E045
S113131002C06FEF7FEFC5010E94E20C4C01F32D78
S1131320F0683F2E820133FC1BC0822D90E08816AA
S11313309906B0F4B60180E290E00E94F80C2A9479
S1131340F4CFF50137FC859137FE81915F01B60139
S113135090E00E94F80C21102A9421E0821A91084E
S11313608114910471F7E8C0843611F0893641F58F
S1131370F80137FE07C060817181828193810C5F1F
S11313801F4F08C060817181072E000C880B990BD8
S11313900E5F1F4FF32DFF763F2E97FF09C09095E8
S11313A08095709561957F4F8F4F9F4FF0683F2ECA
S11313B02AE030E0A3010E94340D882E861845C02F
S11313C0853731F4232D2F7EB22E2AE030E025C05C
S11313D0932D997FB92E8F36C1F018F4883579F0A2
S11313E0B5C0803719F0883721F0B0C0E92FE0612B
S11313F0BE2EB4FE0DC0FB2DF460BF2E09C034FE1A
S11314000AC0292F2660B22E06C028E030E005C0AD
S113141020E130E002C020E132E0F801B7FE07C06D
S113142060817181828193810C5F1F4F06C060814E
S1131430718180E090E00E5F1F4FA3010E94340D84
S1131440882E8618FB2DFF773F2E36FE0DC0232DE8
S11314502E7FA22E891458F434FE0BC032FC09C02E
S1131460832D8E7EA82E05C0B82CA32C03C0B82CC7
S113147001C0B92CA4FE0FC0FE01E80DF11D80814E
S1131480803321F49A2D997EA92E09C0A2FE06C0AC
S1131490B394B39404C08A2D867809F0B394A3FC62
S11314A011C0A0FE06C0B21488F4280C922C9B181C
S11314B00EC0B21460F4B60180E290E00E94F80C11
S11314C0B394F7CFB21418F42B1802C0982C212C23
S11314D0A4FE10C0B60180E390E00E94F80CA2FEC6
S11314E017C0A1FC03C088E790E002C088E590E043
S11314F0B6010CC08A2D867859F0A1FE02C08BE299
S113150001C080E2A7FC8DE2B60190E00E94F80CD5
S1131510891438F4B60180E390E00E94F80C9A94A0
S1131520F7CF8A94F301E80DF11D8081B60190E0B4
S11315300E94F80C8110F5CF222009F442CEB601A6
S113154080E290E00E94F80C2A94F6CFF60186819E
S1131550978102C08FEF9FEF2B96E2E10C94AE0DC2
S1131560A9E0B0E0E6EBFAE00C94980D6A01122FC2
S1131570B02E2BE3201720F0FF24F394F00E02C0CA
S11315802CE3F22E0F2D27E0AE014F5F5F4F0E9438
S11315900A0CBC014981842F8970813031F0E1FC4F
S11315A006C0E0FE06C090E205C09DE203C09BE2D7
S11315B001C090E05E2D507143FF3CC0911102C008
S11315C083E001C084E0811718F4212F281B01C097
S11315D020E051110BC0F601822F30E2882319F06C
S11315E031938150FBCFC20ED11C20E0992329F006
S11315F0D6019C93F60131966F01C6010396E2FE73
S11316000AC03EE4D6013C9341E411964C931197F1
S113161012963C9306C03EE6F601308341E64183D0
S11316203283FC01322F40E2332309F442C0419358
S11316303150FACF42FF44C0911102C083E001C08F
S113164084E0811718F4212F281B01C020E05111D8
S11316500BC0F601822F30E2882319F031938150B8
S1131660FBCFC20ED11C20E0992329F0D6019C9314
S1131670F60131966F01C6010396E2FE0BC039E410
S1131680D6013C933EE411963C93119736E41296AE
S11316903C9307C039E6F60130833EE6318336E6F3
S11316A03283FC01322F40E2332319F0419331504D
S11316B0FBCFFC01E20FF11D10828EEF9FEFA6C05D
S11316C021E030E0911102C020E030E01616170648
S11316D01CF4FB01319602C0E1E0F0E02E0F3F1F45
S11316E0BB2021F0EB2DF0E0319602C0E0E0F0E009
S11316F02E0F3F1FE12FF0E02E173F071CF4121BA3
S1131700212F01C020E08E2D887159F4F601822F1B
S113171030E2882319F031938150FBCFC20ED11CE3
S113172020E0992329F0D6019C93F60131966F01AC
S113173051110BC0F601822F90E3882319F0919385
S11317408150FBCFC20ED11C20E00F2D060F9A81D1
S1131750342F307144FF03C0913309F40150101643
S113176024F4093018F008E001C001E0AB0177FF70
S113177002C040E050E0FB01E41BF50BA1E0B0E047
S1131780AC0FBD1FEA0FFB1F8EE2A82E4B01801A7F
S113179091080B2D10E01195019511094F3FBFEFF2
S11317A05B0721F4D601AC9211966D01641775079D
S11317B02CF08416950614F4818101C080E3415015
S11317C051093196D60111967D014017510724F035
S11317D0D6018C936701E2CF6417750739F4963309
S11317E020F4953319F4311101C081E3F6018083AB
S11317F0F701822F90E2882319F091938150FBCF57
S1131800F701E20FF11D108280E090E02996ECE0F0
S11318100C94B40D283008F027E03327DA01990F2F
S1131820311D87FD916000966105710539F43260C0
S11318302E5F3D9330E32A95E1F708959F3F30F002
S113184080387105610509F03C5F3C5F3D93913040
S113185008F08068911DDF93CF931F930F93FF923D
S1131860EF92192F987F9695E92F96959695E90F03
S1131870FF27E45CFE4F99273327EE24FF24A701BA
S1131880E70105900894079428F4360FE71EF81E24
S1131890491F511D660F771F881F991F0694A1F7D2
S11318A00590079428F4E70EF81E491F561FC11D22
S11318B0770F881F991F661F0694A1F70590079458
S11318C028F4F80E491F561FC71FD11D880F991FF2
S11318D0661F771F0694A1F70590079420F4490F1B
S11318E0561FC71FD81F990F661F771F881F06949E
S11318F0A9F784911095177041F0D695C79557951F
S11319004795F794E7941A95C1F7E2EEF0E06894EE
S11319101590159135916591959105907FE2739598
S1131920E118F10A430B560BC90BD009C0F7E10CBF
S1131930F11E431F561FC91FD01D7EF4703311F4CE
S11319408A95E6CFE894015030F0080F0AF4002796
S1131950021708F4202F2395022F7A3328F079E315
S11319607D932A95E9F710C07D932A9589F606940C
S113197097956795379517951794E118F10A430BD6
S1131980560BC90BD00998F023957E9173957A3341
S113199008F070E37C932013B8F77E9170617D9317
S11319A030F0839571E37D9370E32A95E1F7112478
S11319B0EF90FF900F911F91CF91DF91992787FDB1
S11319C090950895FC010590615070400110D8F77E
S11319D0809590958E0F9F1F0895FC016150704073
S11319E001900110D8F7809590958E0F9F1F089550
S11319F00F931F93CF93DF93FB01238121FD03C03A
S1131A008FEF9FEF2CC022FF16C04681578124819F
S1131A1035814217530744F4A081B1819D012F5FA2
S1131A203F4F318320838C93268137812F5F3F4F33
S1131A303783268314C08B01EC01FB010084F185FC
S1131A40E02D0995892BE1F6D80116968D919C918C
S1131A501797019617969C938E931697CE01DF9154
S1131A60CF911F910F910895FA01AA27283051F1BF
S1131A70203181F1E8946F936E7F6E5F7F4F8F4FBB
S1131A809F4FAF4FB1E03ED0B4E03CD0670F781F1A
S1131A90891F9A1FA11D680F791F8A1F911DA11DFF
S1131AA06A0F711D811D911DA11D20D009F4689438
S1131AB03F912AE0269F11243019305D3193DEF6E0
S1131AC0CF010895462F4770405D4193B3E00FD096
S1131AD0C9F7F6CF462F4F70405D4A3318F0495D81
S1131AE031FD4052419302D0A9F7EACFB4E0A69564
S1131AF09795879577956795BA95C9F70097610586
S1131B00710508959B01AC010A2E069457954795DB
S1131B1037952795BA95C9F7620F731F841F951FD0
S1131B20A01D08952F923F924F925F926F927F92E1
S1131B308F929F92AF92BF92CF92DF92EF92FF92D9
S1131B400F931F93CF93DF93CDB7DEB7CA1BDB0B85
S1131B500FB6F894DEBF0FBECDBF09942A8839882A
S1131B6048885F846E847D848C849B84AA84B98431
S1131B70C884DF80EE80FD800C811B81AA81B9813D
S1131B80CE0FD11D0FB6F894DEBF0FBECDBFED0151
S1091B900895F894FFCF54
S1131B96205069746368203D202573090020526F24
S10D1BA66C6C203D2025730A00003A
S9030000FC
