:100000000C945A000C946C000C946C000C946C00D2
:100010000C94D7000C946C000C946C000C946C0045
:100020000C946C000C946C000C946C000C946C00A0
:100030000C946C000C946C000C946C000C946C0090
:100040000C946C000C946C000C946C000C946C0080
:100050000C946C000C946C000C946C000C946C0070
:100060000C946C000C946C000C946C000C946C0060
:100070000C946C000C946C000C946C000C946C0050
:100080000C946C000C946C000C946C000C946C0040
:100090000C946C000C946C000C946C000C946C0030
:1000A0000C946C000C946C000C946C000C946C0020
:1000B0000C946C0011241FBECFEFD8E0DEBFCDBF83
:1000C00021E0A0E0B1E001C01D92A230B207E1F74B
:1000D0000E9486000C94E9000C940000EAE7F0E02E
:1000E000808180648083808186FDFDCF809178004F
:1000F000909179009093010180930001089580E62A
:1001000080937C0087E880937A0008950E947F00A6
:1001100087B187B9419AE8E6F0E080818260808308
:10012000ECE6F0E08081826080837894219A8FEF02
:100130009FEF909387008093860082EA80938000EF
:10014000E1E8F0E088E1808381E08083C8E8D0E0E6
:1001500002E313EF0E946E00809100019091010173
:100160009C012253334F2D3C3C4060F4198308839B
:100170008FEF99EF20E0815090402040E1F700C0E0
:100180000000E8CF9C012D5C3C402436364E60F4E4
:10019000998388838FEF99EF20E081509040204031
:1001A000E1F700C00000D6CF19821882D3CF1F928A
:1001B0000F920FB60F9211248F939F9397B184E003
:1001C000892787B99F918F910F900FBE0F901F9035
:0601D0001895F894FFCF22
:00000001FF
