S00E00004441324354332E7372656395
S11300000C945A000C946C000C946C000C946C00CE
S11300100C946C000C946C000C946C000C946C00AC
S11300200C946C000C946C000C946C000C946C009C
S11300300C946C000C946C000C949D000C946C005B
S11300400C946C000C946C000C946C000C946C007C
S11300500C946C000C946C000C946C000C946C006C
S11300600C946C000C946C000C946C000C946C005C
S11300700C946C000C946C000C946C000C946C004C
S11300800C946C000C946C000C946C000C946C003C
S11300900C946C000C946C000C946C000C946C002C
S11300A00C946C000C946C000C946C000C946C001C
S11300B00C946C0011241FBECFEFD8E0DEBFCDBF7F
S11300C021E0A0E0B1E001C01D92A130B207E1F748
S11300D00E946E000C94AE000C9400003B988CE0DF
S11300E084B9439A85B18C6085B916BC82E084BD1D
S11300F095E095BD90E897BD80936E00789498E064
S113010033990AC01092000195B980910001853F8E
S1130110E0F32A9A10920001809100018A3528F4B4
S113012080910001883208F02B9A809100018B3570
S113013038F32B9810920001E3CF1F920F920FB661
S11301400F9211248F93809100018F5F809300019F
S11301508F910F900FBE0F901F901895F894FFCFBA
S9030000FC
