:100000000C94DB000C94F8000C94F8000C94F800AD
:100010000C94F8000C94F8000C94F8000C94F80080
:100020000C94F8000C94F8000C941F040C94F80045
:100030000C94F8000C949C050C94F8000C94F800B7
:100040000C94F8000C94F8000C94F8000C94F80050
:100050000C94F8000C94F8000C94F8000C94F80040
:100060000C94F8000C94F8000C94F8000C94F80030
:100070000C94F8000C94F8000C94F8000C94F80020
:100080000C94D2040C94F8000C94F8000C948505A0
:100090000C94F8000C94F8000C94F8000C94F80000
:1000A0000C94F8000C94F8000C94F8000C94F800F0
:1000B0000C94F8006E616E00696E660000407A1064
:1000C000F35A00A0724E18090010A5D4E80000E809
:1000D0007648170000E40B54020000CA9A3B000067
:1000E00000E1F505000080969800000040420F00F6
:1000F0000000A08601000000102700000000E803B7
:10010000000000006400000000000A000000000081
:100110000100000000002C76D888DC674F0823DF40
:10012000C1DFAE59E1B1B796E5E3E453C63AE65113
:10013000997696E8E6C28426EB898C9B62ED407C3A
:100140006FFCEFBC9C9F40F2BAA56FA5F490055AD6
:100150002AF75C936B6CF9676DC11BFCE0E40D47FB
:10016000FEF520E6B500D0ED902E0300943577051E
:100170000080841E080000204E0A000000C80C33D6
:100180003333330F986E12831141EF8D2114893B65
:10019000E65516CFFEE6DB18D1844B381BF77C1DE5
:1001A000901DA4BBE424203284725E228100C9F138
:1001B00024ECA1E53D2711241FBECFEFD8E0DEBF20
:1001C000CDBF11E0A0E0B1E0E6E4FAE102C00590A5
:1001D0000D92A834B107D9F721E0A8E4B1E001C03D
:1001E0001D92A038B207E1F70E9493020C94210DF2
:1001F0000C9400001092C50087E68093C40086E04E
:100200008093C20088E18093C1000895CF93DF936B
:10021000FC012081222369F0DC011196E0ECF0E082
:10022000C6ECD0E0908195FFFDCF28832D91211160
:10023000F9CFDF91CF910895EAE7F0E08081806403
:100240008083808186FDFDCF8091790090E090933E
:1002500077018093760108950F931F93CF93DF93D7
:10026000CDB7DEB7A0970FB6F894DEBF0FBECDBFF7
:100270008091720190917301A0917401B091750108
:10028000BF93AF939F938F938FE091E09F938F9352
:100290008E010F5F1F4F1F930F930E94A10C82E1ED
:1002A00091E00E940601C8010E94060185E491E0E8
:1002B0000E9406010FB6F894DEBF0FBECDBFA09618
:1002C0000FB6F894DEBF0FBECDBFDF91CF911F9167
:1002D0000F9108950F931F93CF93DF93CDB7DEB7A0
:1002E000A0970FB6F894DEBF0FBECDBF80917B0103
:1002F0008F9380917A018F93809179018F93809170
:1003000078018F938FE191E09F938F938E010F5F20
:100310001F4F1F930F930E94A10C83E291E00E9454
:100320000601C8010E94060185E491E00E940601D1
:100330000FB6F894DEBF0FBECDBFA0960FB6F894EF
:10034000DEBF0FBECDBFDF91CF911F910F910895FA
:100350000F931F93CF93DF93CDB7DEB7A0970FB660
:10036000F894DEBF0FBECDBF80917F018F93809147
:100370007E018F9380917D018F9380917C018F937B
:100380008FE191E09F938F938E010F5F1F4F1F931B
:100390000F930E94A10C8CE291E00E940601C8011B
:1003A0000E94060185E491E00E9406010FB6F894D0
:1003B000DEBF0FBECDBFA0960FB6F894DEBF0FBE56
:1003C000CDBFDF91CF911F910F91089580E680936B
:1003D0007C0087E880937A000895209885B185B9DC
:1003E00010928500109284001092800080E4809327
:1003F00081001092820081E286BB80936F00089595
:100400006A988EB18EB91092950010929400109255
:10041000900080E4809391001092920081E288BB6A
:10042000809371000895E1E8F0E08081816080832D
:100430000895E1E9F0E08081816080830895569A13
:1004400016BC0E941C018091760187BD5D9A5C9864
:1004500084B5836884BD85B5856085BD0895609148
:1004600078017091790180917A0190917B010E94CD
:10047000C8062DEB37E346E853E30E9456079B017D
:10048000AC0160E070E080E89FE30E94200620E07D
:1004900030E040E752E40E94560720E030E040EFB1
:1004A00052E40E9420060E949206709349016093D4
:1004B000480108950F931F93CF93DF93CDB7DEB715
:1004C00064970FB6F894DEBF0FBECDBF809149018F
:1004D0008F93809148018F9380E091E09F938F9359
:1004E0008E010F5F1F4F1F930F930E94A10C89E392
:1004F00091E00E940601C8010E94060181E491E09A
:100500000E9406010F900F900F900F900F900F9088
:1005100064960FB6F894DEBF0FBECDBFDF91CF91CA
:100520001F910F910895CF93DF93CDB7DEB76097FA
:100530000FB6F894DEBF0FBECDBF0E94E6010E9449
:10054000FA000E94ED010E9400020E9413020E9424
:1005500019020E941F027894C12CD12C7601812CA3
:10056000912C54011D861E861F86188A19861A86AC
:100570001B861C860F2EF5E02F2E312CF02D0E94AD
:100580001C01E6E7F1E0808187BD809170019091C8
:100590007101049709F060C000916201109163013C
:1005A000209164013091650140906A0150906B0187
:1005B00060906C0170906D0180905E0190905F0181
:1005C000A0906001B09061018091660190916701F7
:1005D000A0916801B0916901B901A801480D591DA8
:1005E0006A1D7B1D4419550966097709481B590B7B
:1005F0006A0B7B0B769567955795479549875A8780
:100600006B877C87880E991EAA1EBB1E84189508CE
:10061000A608B708801A910AA20AB30AB694A7944A
:1006200097948794C501B4010E94C8062B013C0130
:1006300069857A858B859C850E94C8069B01AC01E3
:10064000C301B2010E94200669837A838B839C8355
:10065000309271012092700180916E0190916F0132
:100660008430910509F068C0009152011091530146
:10067000209154013091550140905A0150905B01F6
:1006800060905C0170905D01C0904E01D0904F0170
:10069000E0905001F09051018091560190915701E6
:1006A000A0915801B0915901B901A8014C0D5D1DEF
:1006B0006E1D7F1D4419550966097709481B590BA2
:1006C0006A0B7B0B76956795579547954D875E87A7
:1006D0006F87788BC80ED91EEA1EFB1EC418D5087A
:1006E000E608F708C01AD10AE20AF30AF694E7947A
:1006F000D794C794C701B6010E94C8062B013C01DC
:100700006D857E858F8598890E94C8069B01AC0106
:10071000C301B2010E9420066D837E838F83988778
:1007200030926F0120926E01809170019091710161
:10073000059709F024CF0BC0209170013091710111
:100740002530310509F01BCF059709F018CF6981D5
:100750007A818B819C812D813E814F8158850E94B9
:10076000B40520E030E040E05FE30E94560760936C
:100770007201709373018093740190937501898560
:100780009A85AB85BC852D853E854F855889820F1E
:10079000931FA41FB51FB695A7959795879580932E
:1007A000780190937901A0937A01B0937B01D501F0
:1007B000C4018C0D9D1DAE1DBF1DB695A7959795C7
:1007C000879580937C0190937D01A0937E01B093E7
:1007D0007F010E942C010E94A8010E942F020E940A
:1007E0006A010E945A0210927101109270011092D7
:1007F0006F0110926E01E4E8F0E011821082E4E9EA
:10080000F0E01182108210924D0110924C01109272
:100810004B0110924A01FFEF27EA31E6F1502040E8
:100820003040E1F700C00000EFE6F0E08081816237
:100830008083E1E7F0E0808181628083A0CE1F9217
:100840000F920FB60F9211242F933F938F939F9384
:10085000AF93BF93EF93FF938091700190917101DB
:10086000892BF1F4209186003091870080914C0112
:1008700090914D01A0E0B0E0DC0199278827820F1C
:10088000931FA11DB11D80936A0190936B01A093EA
:100890006C01B0936D01E1E8F0E080818F7B808393
:1008A00080917001909171010197F1F4209186007F
:1008B0003091870080914C0190914D01A0E0B0E013
:1008C000DC0199278827820F931FA11DB11D8093FA
:1008D000660190936701A0936801B0936901E1E814
:1008E000F0E080818064808380917001909171013B
:1008F0000297F1F4209186003091870080914C019D
:1009000090914D01A0E0B0E0DC0199278827820F8B
:10091000931FA11DB11D8093620190936301A09369
:100920006401B0936501E1E8F0E080818F7B808312
:1009300080917001909171010397F1F420918600EC
:100940003091870080914C0190914D01A0E0B0E082
:10095000DC0199278827820F931FA11DB11D809369
:100960005E0190935F01A0936001B0936101EFE697
:10097000F0E080818E7D8083809170019091710183
:1009800001969093710180937001FF91EF91BF9157
:10099000AF919F918F913F912F910F900FBE0F902C
:1009A0001F9018951F920F920FB60F9211242F933C
:1009B0003F938F939F93AF93BF93EF93FF93809158
:1009C0006E0190916F01892BF1F420919600309186
:1009D000970080914A0190914B01A0E0B0E0DC01CA
:1009E00099278827820F931FA11DB11D80935A015B
:1009F00090935B01A0935C01B0935D01E1E9F0E0AD
:100A000080818F7B808380916E0190916F0101972F
:100A1000F1F4209196003091970080914A019091D5
:100A20004B01A0E0B0E0DC0199278827820F931FDB
:100A3000A11DB11D8093560190935701A0935801B9
:100A4000B0935901E1E9F0E0808180648083809176
:100A50006E0190916F010297F1F420919600309110
:100A6000970080914A0190914B01A0E0B0E0DC0139
:100A700099278827820F931FA11DB11D80935201D2
:100A800090935301A0935401B0935501E1E9F0E034
:100A900080818F7B808380916E0190916F0103979D
:100AA000F1F4209196003091970080914A01909145
:100AB0004B01A0E0B0E0DC0199278827820F931F4B
:100AC000A11DB11D80934E0190934F01A093500141
:100AD000B0935101E1E7F0E080818E7D80838091C9
:100AE0006E0190916F01019690936F0180936E015A
:100AF000FF91EF91BF91AF919F918F913F912F9176
:100B00000F900FBE0F901F9018951F920F920FB667
:100B10000F9211248F939F9380914A0190914B01E2
:100B2000019690934B0180934A019F918F910F9072
:100B30000FBE0F901F9018951F920F920FB60F9235
:100B400011248F939F9380914C0190914D010196B8
:100B500090934D0180934C019F918F910F900FBE08
:100B60000F901F9018955058BB27AA270E94CB05BD
:100B70000C941C070E940E0738F00E94150720F005
:100B800039F49F3F19F426F40C940B070EF4E0950A
:100B9000E7FB0C940507E92F0E942D0758F3BA17BD
:100BA000620773078407950720F079F4A6F50C9483
:100BB0004F070EF4E0950B2EBA2FA02D0B01B901B3
:100BC00090010C01CA01A0011124FF27591B99F0C3
:100BD000593F50F4503E68F11A16F040A22F232FCF
:100BE000342F4427585FF3CF469537952795A7951F
:100BF000F0405395C9F77EF41F16BA0B620B730BC6
:100C0000840BBAF09150A1F0FF0FBB1F661F771F36
:100C1000881FC2F70EC0BA0F621F731F841F48F4EB
:100C2000879577956795B795F7959E3F08F0B0CF74
:100C30009395880F08F09927EE0F9795879508955B
:100C40000E9434060C941C070E94150758F00E945D
:100C50000E0740F029F45F3F29F00C94050751116D
:100C60000C9450070C940B070E942D0768F39923EE
:100C7000B1F3552391F3951B550BBB27AA27621798
:100C80007307840738F09F5F5F4F220F331F441FA5
:100C9000AA1FA9F335D00E2E3AF0E0E832D09150D9
:100CA0005040E695001CCAF72BD0FE2F29D0660FC6
:100CB000771F881FBB1F261737074807AB07B0E809
:100CC00009F0BB0B802DBF01FF2793585F4F3AF00F
:100CD0009E3F510578F00C9405070C9450075F3F38
:100CE000E4F3983ED4F3869577956795B795F79595
:100CF0009F5FC9F7880F911D9695879597F908957D
:100D0000E1E0660F771F881FBB1F62177307840718
:100D1000BA0720F0621B730B840BBA0BEE1F88F727
:100D2000E09508950E9499066894B1110C945007BB
:100D300008950E94350788F09F5798F0B92F99279A
:100D4000B751B0F0E1F0660F771F881F991F1AF0B6
:100D5000BA95C9F714C0B13091F00E944F07B1E0C5
:100D600008950C944F07672F782F8827B85F39F0C4
:100D7000B93FCCF3869577956795B395D9F73EF44F
:100D800090958095709561957F4F8F4F9F4F0895F7
:100D9000E89409C097FB3EF4909580957095619515
:100DA0007F4F8F4F9F4F9923A9F0F92F96E9BB27CB
:100DB0009395F695879577956795B795F111F8CF47
:100DC000FAF4BB0F11F460FF1BC06F5F7F4F8F4FB2
:100DD0009F4F16C0882311F096E911C0772321F0A8
:100DE0009EE8872F762F05C0662371F096E8862F40
:100DF00070E060E02AF09A95660F771F881FDAF797
:100E0000880F9695879597F9089597F99F6780E8D9
:100E100070E060E008959FEF80EC089500240A944C
:100E20001616170618060906089500240A941216C5
:100E30001306140605060895092E0394000C11F4F8
:100E4000882352F0BB0F40F4BF2B11F460FF04C0A5
:100E50006F5F7F4F8F4F9F4F089557FD9058440FFE
:100E6000551F59F05F3F71F04795880F97FB991F09
:100E700061F09F3F79F087950895121613061406C6
:100E8000551FF2CF4695F1DF08C016161706180653
:100E9000991FF1CF86957105610508940895E8942E
:100EA000BB2766277727CB0197F908950E9469072A
:100EB0000C941C070E940E0738F00E94150720F0C2
:100EC000952311F00C9405070C940B0711240C9436
:100ED00050070E942D0770F3959FC1F3950F50E0C6
:100EE000551F629FF001729FBB27F00DB11D639FDC
:100EF000AA27F00DB11DAA1F649F6627B00DA11D82
:100F0000661F829F2227B00DA11D621F739FB00D27
:100F1000A11D621F839FA00D611D221F749F332797
:100F2000A00D611D231F849F600D211D822F762F30
:100F30006A2F11249F5750409AF0F1F088234AF00D
:100F4000EE0FFF1FBB1F661F771F881F9150504079
:100F5000A9F79E3F510580F00C9405070C945007AB
:100F60005F3FE4F3983ED4F3869577956795B79500
:100F7000F795E7959F5FC1F7FE2B880F911D96951A
:100F8000879597F90895A0E1B0E0E9ECF7E00C94BB
:100F9000400B7C011B016A01FC01178216828381D0
:100FA00081FF44C39E012F5F3F4F3901F7019381B9
:100FB000F10193FD859193FF81911F01882309F42D
:100FC00031C3853239F493FD859193FF81911F01DF
:100FD000853239F4B70190E00E94650C5601650135
:100FE000E5CF10E0512C912CFFE1F915D8F08B32B0
:100FF00079F038F4803279F08332A1F4F92DF06180
:101000002EC08D3261F0803369F4292D21602DC00E
:10101000392D3260932E892D8460982E2AC0E92DB7
:10102000E86015C097FC2DC020ED280F2A3088F409
:1010300096FE06C03AE0139F200D1124122F19C00E
:101040008AE0589E200D1124522EE92DE0629E2E3A
:1010500010C08E3231F496FCE5C2F92DF0649F2E5B
:1010600008C08C3621F4292D2068922E02C08836C3
:1010700041F4F10193FD859193FF81911F0181114D
:10108000B3CF9BEB980F933020F4992D9061805E45
:1010900007C09BE9980F933008F066C1992D9F7E99
:1010A00096FF16E09F73992E853619F49064992E59
:1010B00008C0863621F4392F3068932E02C01111F2
:1010C000115097FE07C01C3350F444244394410E42
:1010D00027E00BC0183038F027E017E005C027E004
:1010E0009CE3492E02C0212F412C560184E0A80E1A
:1010F000B11CF6016081718182819381042DA3016D
:101100000E94770B6C01F981FC87F0FF02C0F3FFAE
:1011100006C091FC06C092FE06C000E205C00DE2CA
:1011200003C00BE201C000E08C858C7019F0011146
:101130005AC29BC297FE10C04C0CFC85F4FF04C041
:101140008A81813309F44A94141474F528E0241533
:1011500078F588E0482E2CC096FC2AC0812F90E0BC
:101160008C159D059CF03CEFC3163FEFD30674F041
:10117000892D8068982E0AC0E2E0F0E0EC0FFD1F98
:10118000E10FF11D8081803319F411501111F4CF5A
:1011900097FE0EC044244394410E812F90E0C81660
:1011A000D9062CF41C1904C04424439401C010E057
:1011B00097FE06C01C141D0434F4C601019605C038
:1011C00085E090E002C081E090E0011101961123DA
:1011D00031F0212F30E02F5F3F4F820F931F252DDD
:1011E00030E08217930714F4581A01C0512C892D4E
:1011F000897049F4552039F0B70180E290E00E94EF
:10120000650C5A94F7CF002329F0B701802F90E0A6
:101210000E94650C93FC09C0552039F0B70180E3AA
:1012200090E00E94650C5A94F7CF97FE4CC046019F
:10123000D7FE02C0812C912CC60188199909F301AF
:10124000E80FF91FFE87ED87960124193109388BC5
:101250002F87012F10E01195019511093FEF83169B
:10126000930629F4B7018EE290E00E94650CC81441
:10127000D9044CF08F8598898815990524F4ED855B
:10128000FE85818101C080E3F1E08F1A91082D85F0
:101290003E852F5F3F4F3E872D87801691062CF0AD
:1012A000B70190E00E94650CD9CFC814D90441F46D
:1012B0009A81963320F4953319F43C8534FF81E309
:1012C000B70190E04EC08A81813319F09C859F7EE2
:1012D0009C87B70190E00E94650C111105C094FC39
:1012E00018C085E690E017C0B7018EE290E00E943A
:1012F000650C1E5F82E001E0080FF301E80FF11DAD
:101300008081B70190E00E94650C802F0113F3CF1C
:10131000E6CF85E490E0B7010E94650CD7FC06C0DB
:10132000C114D10441F4EC85E4FF05C0D194C1940B
:10133000D1088DE201C08BE2B70190E00E94650CFC
:1013400080E32AE0C216D1042CF08F5FFAE0CF1AB6
:10135000D108F7CFB70190E00E94650CB701C60134
:10136000C0960E94650C54C1833631F0833779F002
:10137000833509F056C020C0560132E0A30EB11CDF
:10138000F6018081898301E010E0630112C05601FB
:10139000F2E0AF0EB11CF601C080D18096FE03C012
:1013A000612F70E002C06FEF7FEFC6010E945A0C00
:1013B0008C01F92DFF7714C0560122E0A20EB11C5A
:1013C000F601C080D18096FE03C0612F70E002C09C
:1013D0006FEF7FEFC6010E944F0C8C01F92DF06872
:1013E0009F2EF3FD1AC0852D90E008171907A8F469
:1013F000B70180E290E00E94650C5A94F4CFF601A8
:1014000097FC859197FE81916F01B70190E00E9452
:10141000650C51105A94015011090115110579F705
:10142000F7C0843611F0893661F5560197FE09C080
:1014300024E0A20EB11CF60160817181828193814A
:101440000AC0F2E0AF0EB11CF60160817181072E77
:10145000000C880B990BF92DFF769F2E97FF09C082
:1014600090958095709561957F4F8F4F9F4FF06855
:101470009F2E2AE030E0A3010E94C30CC82EC6189C
:101480003FC0092D853721F40F7E2AE030E01DC0D2
:10149000097F8F3691F018F4883559F0C3C0803732
:1014A00019F0883711F0BEC0006104FF09C0046064
:1014B00007C094FE08C0066006C028E030E005C002
:1014C00020E130E002C020E132E0560107FF09C010
:1014D00084E0A80EB11CF601608171818281938144
:1014E00008C0F2E0AF0EB11CF6016081718180E0AE
:1014F00090E0A3010E94C30CC82EC6180F77902E4F
:1015000096FE0BC0092D0E7FC11650F494FE0AC042
:1015100092FC08C0092D0E7E05C0DC2C092D03C0ED
:10152000DC2C01C0D12E04FF0DC0FE01EC0DF11D1D
:101530008081803311F4097E09C002FF06C0D39474
:10154000D39404C0802F867809F0D39403FD11C092
:1015500000FF06C01C2DD51480F4150D1D190DC0FB
:10156000D51458F4B70180E290E00E94650CD39442
:10157000F7CFD51410F45D1801C0512C04FF10C032
:10158000B70180E390E00E94650C02FF17C001FDE7
:1015900003C088E790E002C088E590E0B7010CC086
:1015A000802F867859F001FF02C08BE201C080E2F3
:1015B00007FD8DE2B70190E00E94650CC11638F47A
:1015C000B70180E390E00E94650C1150F7CFCA94F8
:1015D000F301EC0DF11D8081B70190E00E94650CD4
:1015E000C110F5CF15C0F4E0F51560F584E0581A88
:1015F00093FE1FC0011127C02C8523FF2AC004EBD6
:1016000010E0392D3071932EF8018491811124C09E
:10161000552009F4E4CCB70180E290E00E94650C0B
:101620005A94F6CFF7018681978126C08FEF9FEFFE
:1016300023C0B70180E290E00E94650C5A945110DB
:10164000F8CFD8CF512CB701802F90E00E94650CC5
:10165000D3CF08EB10E0D5CF91108052B70190E0C6
:101660000E94650C0F5F1F4FCFCF23E0251510F4AC
:1016700083E0BDCF512CC0CF6096E2E10C945C0BAF
:101680002F923F924F925F926F927F928F929F9292
:10169000AF92BF92CF92DF92EF92FF920F931F9380
:1016A000CF93DF93CDB7DEB7CA1BDB0B0FB6F89431
:1016B000DEBF0FBECDBF09942A88398848885F8471
:1016C0006E847D848C849B84AA84B984C884DF80E2
:1016D000EE80FD800C811B81AA81B981CE0FD11DC6
:1016E0000FB6F894DEBF0FBECDBFED0108952830D0
:1016F00008F027E03327DA01990F311D87FD91604B
:1017000000966105710539F432602E5F3D9330E338
:101710002A95E1F708959F3F30F080387105610503
:1017200009F03C5F3C5F3D93913008F08068911D6B
:10173000DF93CF931F930F93FF92EF92192F987F10
:101740009695E92F96959695E90FFF27EA5EFE4F4D
:1017500099273327EE24FF24A701E7010590089479
:10176000079428F4360FE71EF81E491F511D660F17
:10177000771F881F991F0694A1F70590079428F4F6
:10178000E70EF81E491F561FC11D770F881F991FAE
:10179000661F0694A1F70590079428F4F80E491FD8
:1017A000561FC71FD11D880F991F661F771F0694EC
:1017B000A1F70590079420F4490F561FC71FD81FA3
:1017C000990F661F771F881F0694A9F784911095BB
:1017D000177041F0D695C79557954795F794E794BC
:1017E0001A95C1F7ECEBF0E06894159015913591DE
:1017F0006591959105907FE27395E118F10A430B8D
:10180000560BC90BD009C0F7E10CF11E431F561F40
:10181000C91FD01D7EF4703311F48A95E6CFE89489
:10182000015030F0080F0AF40027021708F4202FA7
:101830002395022F7A3328F079E37D932A95E9F7EF
:1018400010C07D932A9589F60694979567953795EC
:1018500017951794E118F10A430B560BC90BD009E1
:1018600098F023957E9173957A3308F070E37C931A
:101870002013B8F77E9170617D9330F0839571E30A
:101880007D9370E32A95E1F71124EF90FF900F917B
:101890001F91CF91DF91992787FD90950895FC01C5
:1018A0000590615070400110D8F7809590958E0F8B
:1018B0009F1F0895FC016150704001900110D8F7FE
:1018C000809590958E0F9F1F08950F931F93CF9330
:1018D000DF93FB01238121FD03C08FEF9FEF2CC01D
:1018E00022FF16C046815781248135814217530754
:1018F00044F4A081B1819D012F5F3F4F318320834C
:101900008C93268137812F5F3F4F3783268314C006
:101910008B01EC01FB010084F185E02D0995892BF9
:10192000E1F6D80116968D919C911797019617961E
:101930009C938E931697CE01DF91CF911F910F91BB
:101940000895AEE0B0E0E7EAFCE00C944E0B0D89A0
:101950001E8986E08C831A8309838FEF9FE79E831D
:101960008D83AE01475E5F4F6F89788DCE01019602
:101970000E94C307EF81F885E00FF11F10822E96B9
:10198000E4E00C946A0BFA01AA27283051F12031C7
:1019900081F1E8946F936E7F6E5F7F4F8F4F9F4F03
:1019A000AF4FB1E03ED0B4E03CD0670F781F891F45
:1019B0009A1FA11D680F791F8A1F911DA11D6A0F13
:1019C000711D811D911DA11D20D009F468943F91C6
:1019D0002AE0269F11243019305D3193DEF6CF01C5
:1019E0000895462F4770405D4193B3E00FD0C9F78B
:1019F000F6CF462F4F70405D4A3318F0495D31FDF8
:101A00004052419302D0A9F7EACFB4E0A69597954A
:101A1000879577956795BA95C9F700976105710520
:101A200008959B01AC010A2E06945795479537956A
:101A30002795BA95C9F7620F731F841F951FA01DC4
:061A40000895F894FFCFA9
:101A46002569004144432056616C75653A2000259E
:101A5600660044757479204379636C653A200025E5
:101A66006C7500506572696F643A200050756C732E
:101A76006577696474683A200053706565643A2036
:081A8600002072706D0A0000DF
:00000001FF
