:100000000C945A000C946C000C946C000C946C00D2
:100010000C946C000C946C000C946C000C946C00B0
:100020000C946C000C946C000C946C000C946C00A0
:100030000C946C000C946C000C946C000C946C0090
:100040000C946C000C946C000C946C000C946C0080
:100050000C946C000C946C000C946C000C946C0070
:100060000C946C000C946C000C946C000C946C0060
:100070000C946C000C946C000C946C000C946C0050
:100080000C946C000C946C000C946C000C946C0040
:100090000C946C000C946C000C946C000C946C0030
:1000A0000C946C000C946C000C946C000C946C0020
:1000B0000C946C0011241FBECFEFD8E0DEBFCDBF83
:1000C00021E0A0E0B1E001C01D92A030B207E1F74D
:1000D0000E9475000C94C6000C94000080E680938A
:1000E0007C0085E880937A0008950E946E00409A13
:1000F000E0E8F0E08081806A808380818260808394
:10010000E1E8F0E080818861808380818360808382
:1001100087E893E19093870080938600219AE8E82E
:10012000F0E061E670E04CE351E02FE931E087E177
:1001300092E071836083AFEFB1EEC4E0A150B040B4
:10014000C040E1F700C0000051834083AFEFB1EE43
:10015000C4E0A150B040C040E1F700C000003183CE
:100160002083AFEFB1EEC4E0A150B040C040E1F752
:1001700000C0000091838083AFEFB1EEC4E0A150D6
:10018000B040C040E1F700C00000D3CFF894FFCFEB
:00000001FF
