:100000000C945A000C946C000C946C000C946C00D2
:100010000C946C000C946C000C946C000C946C00B0
:100020000C946C000C946C000C946C000C946C00A0
:100030000C946C000C946C000C946C000C946C0090
:100040000C946C000C946C000C946C000C946C0080
:100050000C946C000C946C000C946C000C946C0070
:100060000C946C000C946C000C946C000C946C0060
:100070000C946C000C946C000C946C000C946C0050
:100080000C946C000C946C000C946C000C946C0040
:100090000C946C000C946C000C946C000C946C0030
:1000A0000C946C000C946C000C946C000C946C0020
:1000B0000C946C0011241FBECFEFD8E0DEBFCDBF83
:1000C00021E0A0E0B1E001C01D92A230B207E1F74B
:1000D0000E9486000C94D7000C94000080E6809368
:1000E0007C0085E880937A00089580917A0080648E
:1000F00080937A0080917A0086FDFCCF8091790010
:1001000090E0909301018093000108950E946E0099
:10011000409A80918000806A809380008091800066
:10012000826080938000809181008861809381004B
:100130008091810083608093810087E893E19093B0
:10014000870080938600219AC7E1D2E00AEA11E095
:100150008CE3E82EFF24F39491E6C92ED12C0E9463
:10016000750080910001909101018034910528F47F
:10017000D0928900C0928800F2CF9C0120543109AE
:100180002034310528F4F0928900E0928800E7CF0E
:100190008E5791098234910528F4109389000093B9
:1001A0008800DDCFD0938900C0938800D8CFF89421
:0201B000FFCF7F
:00000001FF
