S00D00005461736B312E7372656353
S11300000C945A000C9464000C9464000C946400E6
S11300100C9464000C9464000C9464000C946400CC
S11300200C9464000C9464000C9464000C946400BC
S11300300C9464000C9464000C9464000C946400AC
S11300400C9464000C9464000C9464000C9464009C
S11300500C9464000C9464000C9464000C9464008C
S11300600C9464000C9464000C9464000C9464007C
S11300700C9464000C9464000C9464000C9464006C
S11300800C9464000C9464000C9464000C9464005C
S11300900C9464000C9464000C9464000C9464004C
S11300A00C9464000C9464000C9464000C9464003C
S11300B00C94640011241FBECFEFD8E0DEBFCDBF87
S11300C00E9466000C9493000C9400002AB12067EF
S11300D02AB920E827BD24B5236824BD25B52160AD
S11300E025BD31E020E050E040E0019771F45D9AD5
S11300F05C986FEF83E294EF615080409040E1F7A9
S113010000C00000852F942FF0CF5D985C9A6FEFAC
S113011083E294EF615080409040E1F700C000001A
S10D0120832F922FE2CFF894FFCF53
S9030000FC
