:100000000C945A000C946C000C946C000C946C00D2
:100010000C946C000C946C000C946C000C946C00B0
:100020000C946C000C946C000C946C000C946C00A0
:100030000C946C000C946C000C946C000C946C0090
:100040000C946C000C946C000C946C000C946C0080
:100050000C946C000C946C000C946C000C946C0070
:100060000C946C000C946C000C946C000C946C0060
:100070000C946C000C946C000C946C000C946C0050
:100080000C946C000C946C000C946C000C946C0040
:100090000C946C000C946C000C946C000C946C0030
:1000A0000C946C000C946C000C946C000C946C0020
:1000B0000C946C0011241FBECFEFD8E0DEBFCDBF83
:1000C00021E0A0E0B1E001C01D92A230B207E1F74B
:1000D0000E9491000C94B6000C94000080E680937E
:1000E0007C0087E880937A000895EAE7F0E0808159
:1000F00080648083808186FDFDCF8091790090E0CF
:10010000909301018093000108958091000187BDC3
:1001100084E690E022E0A99BFECF25BB0197D9F7AA
:1001200008950E946E0084B5826084BD85B58560A7
:1001300085BD16BC409A80EF8AB900E910E3D0E68D
:10014000C0EC0BB90E9475000E9485001BB90E948B
:1001500075000E948500DBB90E9475000E94850031
:10016000CBB90E9475000E948500EBCFF894FFCFB9
:00000001FF
